SH201710250172248000016700000000400003                                                                                                                                                                                                                                                                                                                                                                         
S123434454000367001323213131232TESTTESTTESTTESTET              TEST TEST TEST TES TET                                          rrrrrrrrrrrrrrr@hotmail.com                                 05522222222                                                                                                                                                                                                         
S102342342342342342342342342429TESTETSTETSTESTETSTTTESTTETSTTESTSTETSTSTETSTETSTETST                                           bbbbbbbbbbbb@hotmail.com                                    05333333333                                                                                                                                                                                                         
S103456456567576787767575646456TESTETSTESTE  ETS ETSTE ST ESTE STE STTETSTES                                                   ppppppppp@ppppppppppp.com.br                                05444444444                                                                                                                                                                                                         
S20042342424546456456756757553504H                                                                                                                                                                                                                                                                                                                                                                             
S20034536553545676575657575620904H                                                                                                                                                                                                                                                                                                                                                                             
S20023435467646576768686886886864H                                                                                                                                                                                                                                                                                                                                                                             
ST201710250172248000016700000000400003                                                                                                                                                                                                                                                                                                                                                                         
